:100000000C941E030C943B030C943B030C943B0395
:100010000C943B030C943B030C943B030C943B0368
:100020000C943B030C943B030C94981F0C946C2091
:100030000C94961A0C943B030C943B030C943B03D6
:100040000C943B030C943B030C943B030C943B0338
:100050000C943B030C941D1B0C943B030C943B032E
:100060000C943B030C943B030C943B030C943B0318
:100070000C943B030C943B030C943B030C943B0308
:100080000C943B030C943B030C943B030C943B03F8
:100090000C943B030C943B030C943B030C943B03E8
:1000A0000C943B030C943B030C943B0329002B0062
:1000B0003900E100C35200001E00140004001D00BE
:1000C000C452A5521F001A0016001B003100E000A8
:1000D000200008000700060035002A002100150056
:1000E00009001900E200E100220017000A000500E3
:1000F0000000E3006152310000004C000000225279
:100100002E0030000000240200004A0023001C00E2
:100110000B00110000004D00240018000D0010001D
:10012000E6004B0025000C000E00360050002C00AD
:10013000260012000F00370052002800270013008D
:100140003300380051004E002D002F003400E50030
:100150004F0000000100010001000100010000004B
:1001600001000100010001000100AC52010001008A
:10017000010001000100E300010001000100010095
:100180000100010001000100010001000100010067
:1001900001000100010001000000E00062520100C6
:1001A000000001000000010001000100000001004A
:1001B0000000010001000100010001000000010039
:1001C0000100010001000100010001000100010027
:1001D0000100010001000100010001000100010017
:1001E0000100010001000100010001000100010007
:1001F000010001000100010001000000A500010054
:100200000100A600625200003A003F0044006B006B
:10021000700001003B00400045006C0071000100CF
:100220003C00410068006D00720001003D0042008A
:1002300069006E00730001003E0043006A006F0019
:100240000000310001000100000046000000010034
:10025000A800A9000000AA000000AC000100BD0039
:10026000B600BE000000AB0001000100DB00010091
:100270006500AE0025022F1434146400DB00010079
:100280002602301431146402D9000100010001007B
:10029000DC000100DA00AD00007C027CB700010048
:1002A000DC0000000100010001000100010000006D
:1002B0000100010001000100010001000100010036
:1002C0000100010001000100010001000100010026
:1002D0000100010001000100010001000100010016
:1002E0000100010001000100000001000100010007
:1002F00000000100000001004900010000000100B1
:100300000000010053005600570055000000010096
:1003100054005F005C00590062000100550060005D
:100320005D005A0063000100550061005E005B0043
:100330002D0001000000560057005700000001008A
:1003400046004700480000000000000000000000D8
:10035000000000000000000000000000000000009D
:10036000010001000000000000000000000001008A
:10037000000000000000000000000000000000007D
:10038000000000000100010000000000000000006B
:10039000000001000000000000000000000000005C
:1003A00000000000000000000000D300000000007A
:1003B000000000000000D40000000000CF0000009A
:1003C000010000000000CD00CE0000000100D200BE
:1003D00000000000D00000000100D100000000007B
:1003E000000000000100D500000000000000000037
:1003F00001000000010001000100010001000000F7
:1004000001000100010001000100010001000100E4
:1004100001000100010001000100010001000100D4
:1004200001000100010001000100010001000100C4
:1004300001000100010001000000010001000100B5
:1004400000000100000001000100010000000100A7
:100450000000010001000100010001000000010096
:100460000100010001000100010001000100010084
:100470000100010001000100010001000100010074
:100480000100010001000100010001000100010064
:1004900001000100010001000100000016034500F9
:1004A000720067006F0044006F0078002000450074
:1004B0005A00000028035A00530041002000540055
:1004C0006500630068006E006F006C006F006700DD
:1004D000790020004C0061006200730000000403FA
:1004E000090409025400030100A0FA0904000001F4
:1004F00003010100092111010001224000070581CB
:10050000030800010904010001030102000921118F
:1005100001000122470007058203080001090402C7
:10052000000103000000092111010001226D0007F4
:100530000583032000011201000200000008973229
:10054000744901000102000105010980A101850330
:1005500019012AB700150126B70095017510810011
:10056000C0050C0901A101850419012AA002150189
:1005700026A002950175108100C005010906A101A0
:100580008506050719E029E715002501950875017D
:1005900081020507190029EF1500250195F0750165
:1005A000810205081901290595057501910295013A
:1005B00075039101C005010902A1010901A100050E
:1005C0000919012908150025019508750181020501
:1005D00001093009311581257F95027508810609C9
:1005E000381581257F950175088106050C0A3802AA
:1005F0001581257F950175088106C0C00501090692
:10060000A101050719E029E71500250195087501E5
:1006100081029501750881010507190029FF150060
:1006200026FF009506750881000508190129059522
:100630000575019102950175039101C011241FBE3A
:10064000CFEFDAE0DEBFCDBF11E0A0E0B1E0E2E73E
:10065000F8E402C005900D92A439B107D9F722E061
:10066000A4E9B1E001C01D92AC3DB207E1F70E94E0
:10067000FA130C94F8230C9400008098889A8198BF
:10068000899A84988C9A85988D9A86988E9A87985C
:100690008F9A0895209828982198299822982A9826
:1006A00023982B9852985A9853985B983E9846985E
:1006B0000895CF93C82F873078F5809106019091E7
:1006C0000701892B39F564E670E080E40E943F1849
:1006D0009093070180930601892BD1F464E670E0C2
:1006E00082E10E94AB189093070180930601892B49
:1006F00079F481E090E001C0880FCA95EAF764E6DA
:1007000070E080950E94AB189093070180930601DA
:100710000E94FC18CF9108958A30B1F038F48830E7
:1007200069F0893071F0209A2898F4CF8C3091F0DC
:1007300070F08D30C1F73E9A4698ECCF219A2998F7
:10074000E9CF229A2A98E6CF239A2B98E3CF529AA0
:100750005A98E0CF539A5B98DDCFCF93873050F50E
:100760008091060190910701C0E0892B71F464E645
:1007700070E081E40E943F18909307018093060186
:10078000892B31F0C0E00E94FC188C2FCF91089586
:1007900084E690E00E94D91897FF05C09093070166
:1007A00080930601EFCFC82FC095109207011092D9
:1007B0000601E9CFCFB18FB1869586958C73C37052
:1007C0008C2BC82FC095E1CF0E94EE0490E090934F
:1007D0000701809306010E944A030E943D03089589
:1007E000EF92FF920F931F93CF93DF9380910601B7
:1007F00090910701892B91F0809196018F5F8093F2
:10080000960181110BC00E94EE0490E090930701C5
:1008100080930601892B11F40E9481040BEA12E0F7
:10082000C0E0D0E087E0E82EEC0E8C2F0E94590348
:100830008E2D0E9459038C2F0E94AD038F73F801F7
:1008400091918F01F12C891721F031978083FF243A
:10085000F3948E2D0E94AD038F73F8019681891752
:1008600079F0868381E08F29D82B0E944A03CF5FDD
:10087000C730C1F68D2FCDB7DEB7E6E00C94692204
:1008800080E0F1CF0E94EE0490E090930701809306
:1008900006010E944A030E943D03E9EBF2E0119237
:1008A00082E0E73CF807D9F70895259A2D9A089534
:1008B000269A2E9A0895279A2F9A089556985E9808
:1008C000089525982D98089526982E98089527988C
:1008D0002F9808950E945E040E9461040E9464049F
:1008E0000E946704089590E09093890080938800A7
:1008F00090938B0080938A0090938D0080938C005E
:1009000008950E946A048FEF0E9473040E945504A8
:100910002FEF80E792E0215080409040E1F700C047
:1009200000000E9458042FEF80E792E021508040A1
:100930009040E1F700C000000E945B042FEF80E7C9
:1009400092E0215080409040E1F700C000000E94FA
:1009500061042FEF80E792E0215080409040E1F762
:1009600000C000000E9464042FEF80E792E0215055
:1009700080409040E1F700C000000E9467040E94A0
:100980006A04089589EA8093800089E08093810059
:1009900024982C983F988AB18F7C8AB96E98479A90
:1009A0008BB180638BB9769A0E94E30F6093A502A6
:1009B0007093A6028093A7029093A80267702FEF0E
:1009C000629FC001112495958795959587950E9402
:1009D00073040E9481040E941B13089580E290E03A
:1009E00090930701809306018091970181110EC0B9
:1009F0000E94391881E0809397012FEF83ED90E3F7
:100A0000215080409040E1F700C0000064E670E0B3
:100A100080E40E943F189093070180930601892B80
:100A200009F04EC064E670E080E00E94AB1890933D
:100A3000070180930601892B09F042C064E670E04B
:100A400080E00E94AB189093070180930601892BE8
:100A5000B9F564E670E08FE30E94AB18909307014C
:100A600080930601892B61F50E94FC1864E670E012
:100A700080E40E943F189093070180930601892B20
:100A8000F9F464E670E08CE00E94AB1890930701E3
:100A900080930601892BA1F464E670E080E00E9457
:100AA000AB189093070180930601892B49F464E603
:100AB00070E08FE30E94AB189093070180930601CA
:100AC0000E94FC188091060108951092A5021092D0
:100AD000A6021092A7021092A80284E0806180937F
:100AE000A5026091A5027091A6028091A702909143
:100AF000A8020E94E80F0E94F60F08950E941C139E
:100B000008958630B8F46E30A8F4463098F450E07A
:100B100096E0699F400D511D1124FA0194E5899FCB
:100B2000E00DF11D1124EE0FFF1FE455FF4F8591DD
:100B30009491089580E090E008950E9481050895C1
:100B400081E0089581E008950E94A2050895089526
:100B50000E94A7050895A5E0B0E0E1EBF5E00C9454
:100B6000502249835A8330919D0189819A813111A4
:100B700019C0662399F0222389F00E94B20B182F26
:100B8000682F89819A810E948E0B69817A81812FD9
:100B90000E9404122596E3E00C946C220E94A00BA4
:100BA000182FF3CF0E94B20B69817A81F1CFFC013B
:100BB000262F408151816281738184810E94AB051F
:100BC000089581E00895CF93DF93EC0160E00E94E7
:100BD000D705BE010E94A805DF91CF9108950E941C
:100BE000C20408950E947E05089508950E945D0A3A
:100BF0000E94F5052FEF84E39CE021508040904057
:100C0000E1F700C0000008950E94F6050E94411B14
:100C100008950E94F6050E94731B08950F931F9379
:100C2000CF93DF938C0161E00E94D705EC01B801FE
:100C30000E94A405811106C080E0DF91CF911F9131
:100C40000F910895B801CE010E94F5178823A1F3F2
:100C5000B801CE010E948B16882371F3B801CE0132
:100C60000E946717882341F3F8018281882361F08D
:100C7000C330FCE7DF07E9F058F4C115ECE7DE0705
:100C8000A9F0C130DC47B9F0C8010E94A005D5CF5A
:100C9000CB358CE7D807A9F0CC35ECE7DE0771F04F
:100CA000CA35DC4789F70E94B40FEECF0E940406D4
:100CB000C3CF0E94BC0F0E940906BECF0E94AA0F9C
:100CC000E3CF0E94B80FE0CF0E94741A0E948E06F4
:100CD00008950E9492060E94781A089508950E942D
:100CE0006E06089581E008950895CF93DF93D82F7D
:100CF0000E947206C82F882319F08D2F0E94740657
:100D00008C2FDF91CF9108950895CF93C82F0E9423
:100D10006F068C2F0E947506CF91089580E00E9487
:100D2000850608950E940A190E9485060895CF93AA
:100D30000E940A19C82F809198018C1779F0C093EE
:100D400098010E94021B6093990170939A0180930D
:100D50009B0190939C018C2F0E948506CF91089552
:100D6000ABE0B0E0E6EBF6E00C9451224F835887FD
:100D700069877A878B8761110E94F50E1E821D821A
:100D800085E0FE013796DE01119601900D928A955D
:100D9000E1F78C819D81892B61F449815A816B81B6
:100DA0007C818D819E810E941E0E2B96E2E00C9428
:100DB0006D2289819A8189238F3F79F3CE01019633
:100DC0000E94E1058111E9CFF0CFFC018081918182
:100DD0000E94E40B0895662329F00E947E140E946D
:100DE000511508950E94D814FACFCF93C82F8823A5
:100DF000C9F08238C9F40E940A1981FD13C089E341
:100E00000E94AD0E0E94160F2FEF87EE93E0215047
:100E100080409040E1F700C0000089E30E94B50ED9
:100E20000E94160FCF9108958338A1F40E940A19E9
:100E300080FDF8CF83E50E94AD0E0E94160F2FEFC4
:100E400081EE94E0215080409040E1F700C0000026
:100E500083E5E4CF8438A1F40E940A1982FDE2CF31
:100E600087E40E94AD0E0E94160F2FEF81EE94E0F2
:100E7000215080409040E1F700C0000087E4CECFD1
:100E80008CEF8C0F813A90F46C2F80910801909137
:100E900009010E949A19882329F08C2F0E94B50E0F
:100EA0000E94160F8C2F0E94AD0EBACF80E28C0FDD
:100EB000883048F4C77081E001C0880FCA95EAF70E
:100EC0000E94D80EADCFEBE5EC0FE33040F4F0E03C
:100ED000E45BFE4F808190E00E943C19A3CFE8E5DF
:100EE000EC0FE93150F4F0E0EE0FFF1FE65EFE4F2D
:100EF000808191810E94611995CF83E38C0F8331AA
:100F000008F090CF61E08C2F0E94EB068BCF8823F6
:100F100009F456C0823879F40E940A1981FF50C042
:100F200089E30E94AD0E0E94160F89E30E94B50E60
:100F30000E94160F0895833859F40E940A1980FF01
:100F40003FC083E50E94AD0E0E94160F83E5EECFF1
:100F5000843859F40E940A1982FF32C087E40E9443
:100F6000AD0E0E94160F87E4E1CF9CEF980F913AE7
:100F7000E8F290E2980F983050F4877091E001C049
:100F8000990F8A95EAF7892F0E94DE0ED1CF9BE553
:100F9000980F933028F490E080E00E943C19089567
:100FA00098E5980F993128F490E080E00E9461194B
:100FB000089593E3980F933118F460E00E94EB06D4
:100FC00008951F93CF93DF93182FEB010E94F5062E
:100FD000209739F4812F0E948707DF91CF911F91CD
:100FE00008958FE99FE00197F1F700C00000219775
:100FF000EFCF70E060E0893311F460E570E00E94AB
:10100000E1070895882321F00E94D80E0E94160F50
:101010000895882321F00E94DE0E0E94160F089585
:10102000B0E0A0E0E6E1F8E00C944A226C01D62F93
:10103000C72FFC011281058102950F700E94CE0E10
:10104000E82E8823B9F0E12E1123A1F08C2F807FA8
:10105000803421F080E28D0F8830C8F08091AA02A0
:1010600082FF15C082E00E94790F0E94CE0E91E0AF
:10107000E82EE926BC2EB2949FE0B922FBE0FB15D6
:10108000B8F1EB2DF0E0E650FC4D0C943B22E12C46
:10109000F1CF0C2F0F70C07F11F00295007F11234C
:1010A00099F0002359F080E28D0F883010F0D111B3
:1010B00007C0802F0E94D80E0E94160F8D2F5CC093
:1010C000802F0E94E80EF8CF8D2F0E948707002303
:1010D00079F080E28D0F883010F0D11104C0802F9C
:1010E0000E94DE0E03C0802F0E94EE0E0E94160F9B
:1010F000EB2DE850FF0B349720F40E940A190E9450
:101100008506EE2089F00E94CA0E80FD0DC0F60112
:1011100012820E94C40E0E94EC0AC6010E941D0A9F
:101120000E94C40E0E94FC0ACDB7DEB7E9E00C9421
:1011300066222C2F2F70F22EC07FC03219F0F2944D
:1011400080EFF822DD2351F0D13009F443C01123A0
:1011500009F44AC0002309F442C0B0CF8091AA022A
:1011600082FD15C0112359F0FF2029F08F2D0E9418
:10117000D80E0E94160F80E00E94F506B9CF80E0DD
:101180000E948707FF2009F4B3CF8F2DA9CF112329
:1011900081F0011106C00E94F80E8F290E940208FA
:1011A000A7CF0130C1F70E94F80E8F290E94FF0ED1
:1011B0009FCF011106C00E940C0F8F2D0E940908BD
:1011C00097CF013009F494CF8F2D0E9409080E9417
:1011D0000C0F8ECF112329F0023008F089CF8F2D0C
:1011E000DDCF011185CFE9CF002339F3D93349F49D
:1011F0003FEF87EE93E0315080409040E1F700C030
:1012000000008D2F0E94870773CF8C2F86958695BF
:10121000837069F0813009F06BCF8D2F9C2F937014
:10122000111102C080E090E00E94611961CF8D2F02
:101230009C2F9370111102C080E090E00E943C1935
:1012400057CF612F8D2F0E94EB0652CF8C2F8370CA
:10125000A1F511114DCF4D2F429546954770440F82
:10126000440F2D2F2F7030E0042E02C0220F331FA9
:101270000A94E2F790E080E0D4FF09C08FE090E0AC
:1012800002C0880F991F4A95E2F780959095C69500
:10129000C695C370822B932BC23049F058F4C130ED
:1012A00019F00E94BC0A24CF0E94B30A21CF0E94E9
:1012B000C50A1ECF0E94B00A1BCF8695112311F0DC
:1012C0008C2F8170882309F413CF4D2F42954695BA
:1012D0004770440F440F2D2F2F7030E0042E02C0B2
:1012E000220F331F0A94E2F790E080E0D4FF09C098
:1012F0008FE090E002C0880F991F4A95E2F7809531
:101300009095C695C695C370822B932BC23049F039
:1013100058F4C13019F00E94270BEACE0E941E0B30
:10132000E7CE0E94300BE4CE0E94D40AE1CECF700B
:10133000112329F08C2F0E94EC0A8D2F2FCF8D2F97
:101340000E9409088C2F0E94FC0AD2CED23F39F1AC
:1013500060F4D03FB9F0D13F81F0112309F445C0CA
:101360000111ACCE8C2F8F711EC0D33FF9F0D43F4A
:10137000A1F78091AA0282FD23C08C2F8F711123C7
:1013800011F311C0112339F00111B2CE8C2F8F71DE
:101390000E940E0BADCE023008F0AACEF7CF8C2FF4
:1013A0008F711111D0CF0E94EC0AA2CE112329F027
:1013B0008C2F8F710E94E00A9BCE0E94DB0A98CE90
:1013C000112349F0CF718C2F0E94EC0A63E08C2F1F
:1013D0000E945B0F8DCE81E00E94790F023008F4ED
:1013E00087CE82E00E94790F83CE002359F0D93353
:1013F00009F007CFEFEFF7EE23E0E150F040204097
:10140000E1F7FDCE8C2F8F719ECF0F931F93CF935B
:10141000DF93EC01688179818A810E94EF0B8C0156
:101420000E94390B0E94AF0AB801CE010E94100839
:10143000DF91CF911F910F910895CF93DF93EC012E
:101440008B819C81892B29F08881998189238F3F09
:1014500051F4DF91CF910895CE010E94050ACE018B
:101460000E94E305F6CFCE010E940E068111F4CF53
:101470000E94CE0E882369F38A81882351F38091DC
:10148000AA0282FFE6CF82E00E94790FE2CF90E0CD
:1014900080E00E943C1990E080E00E9461190E9467
:1014A000F50E0E94160F0E946D150E9451150895A9
:1014B0000E94BD0E0E94470A08950E94E50E0E94F8
:1014C000580A089592959F70963091F058F4925F63
:1014D0009F70923058F4803F19F030F4883E30F419
:1014E00081E008959A5FF4CF843FD1F380E00895BE
:1014F000883EB0F3813FD1F7F3CFFC018381948123
:10150000892B29F08081918189238F3F11F480E01C
:101510000895808191810E94E40B0E94620A0895DF
:10152000A5E0B0E0E6E9FAE00C9451222596E2E06D
:101530000C946D22A6E0B0E0E0EAFAE00C945122AF
:101540002696E2E00C946D2208950E94A40A089564
:101550000E94A50A9093CD018093CC01089508952F
:101560000E94A80A08952091CC013091CD01822BD0
:10157000932B0E94A80A08952091CC013091CD01AF
:10158000822393230E94A80A08952091CC013091D0
:10159000CD01822793270E94A80A08950E94A40AD9
:1015A00008950E94CE0A08950E94D10A9093CB011B
:1015B0008093CA01089590E080E00E94D40A0895C3
:1015C00021E030E0A90102C0440F551F8A95E2F7DF
:1015D000CA010E94D40A089521E030E002C0220F1F
:1015E000331F8A95E2F78091CA019091CB01822B3B
:1015F000932B0E94D40A089521E030E002C0220F0C
:10160000331F8A95E2F7209530958091CA01909119
:10161000CB01822393230E94D40A089521E030E075
:1016200002C0220F331F8A95E2F78091CA01909180
:10163000CB01822793270E94D40A08952091CA01E2
:101640003091CB01822B932B0E94D40A08952091D4
:10165000CA013091CB01822393230E94D40A0895BA
:101660002091CA013091CB01822793270E94D40A8E
:1016700008950895262F277091E001C0990F2A95AB
:10168000EAF723E0769567952A95E1F7660F771FCD
:10169000660F771FFA01E60FF71F50E040E0682F52
:1016A00070E08191DF0111979B01042E02C03695F5
:1016B00027950A94E2F721702195282729232827C6
:1016C0002C934F5F5F4F4430510559F70895A82F71
:1016D000A77023E0969587952A95E1F7880F991FC3
:1016E000880F991FFB01E80FF91F50E040E080E0F0
:1016F000219130E00A2E02C0369527950A94E2F730
:1017000021703327042E01C0220F0A94EAF7822B9E
:101710004F5F5F4F4430510559F70895262F9E3093
:1017200070F4863060F4682F70E086E0989F600D5A
:10173000711D11244EE951E0822F0E943A0B089549
:10174000292F9E3068F4863058F490E06EE971E0FD
:1017500036E0239F800D911D11240E94670B089590
:1017600080E00895B0E0A0E0E8EBFBE00C944A22B2
:101770007C010091CA011091CB018091CC01909124
:10178000CD01082B192BCFE0D0E0CC24C394D12C71
:10179000BC2EC6010C2E02C0880F991F0A94E2F7D6
:1017A00080239123892B49F4219790F7B12C8B2D1D
:1017B000CDB7DEB7E9E00C946622B7018C2F0E940A
:1017C0001012019789F3F3CFCF93DF93EC010E94BE
:1017D000B20BBE010E941012DF91CF9108951F93AA
:1017E000CF93DF93EB0190919D01992339F0CB01C9
:1017F0000E94E40BDF91CF911F910895882369F037
:10180000CB010E94B20B182F682FCE010E948E0BC5
:10181000BE01812F0E941012EDCFCB010E94A00BC0
:10182000182FF6CF1F93CF93DF93C091CE0116E010
:101830008091CF018C1304C0DF91CF911F91089547
:10184000D0E01C9FF0011D9FF00D1124E053FE4FCE
:101850004081518162817381848195810E949A0ABD
:101860002196C770E5CF409100025091010260912E
:1018700002027091030280910402909105020E947D
:101880009A0A08951F93CF93DF9380910502807F7A
:1018900009F049C080910202882309F444C0809174
:1018A000CE01C091CF016091000270910102A09120
:1018B0000302B0910402D62FD72316E0C81799F17E
:1018C00090E0109711F0DF3F19F401968770F6CF82
:1018D000189F9001199F300D1124F901E053FE4F1C
:1018E00041814713F2CF40814613EFCF428141112E
:1018F000ECCF438154814A1B5B0B483C510528F7D0
:10190000809105028F70806180930502F901EB528E
:10191000FE4F80818F708061808380E092E00E9422
:101920001D0A0E94120CDF91CF911F910895A1E131
:10193000B0E0EDE9FCE00C9449228C0185E0F8016F
:10194000DE011D9601900D928A95E1F7F801E28083
:1019500080E0C82E82E0D82E6091030270910402CC
:101960006115710509F44EC19091000220910102A8
:10197000892F82238F3F09F445C140815181A38083
:10198000B480F0900202F501E61BF70BFF2009F48A
:10199000EAC080910502382F307FE83CF10508F05D
:1019A000A3C031116DC0FE2C251316C0941314C0B2
:1019B000E11012C08F708061809305020E94330C89
:1019C000C6010E941D0A80910502F80185838F2DB2
:1019D0006196EAE00C946522A114B10429F0842FE9
:1019E00085238F3F09F027C180E0F82FF170DF2EAB
:1019F00080FF3CC08091CE012091CF0136E0821360
:101A000015C04D875E878D859E850E94E40B292F2A
:101A100022952F702230F0F0243018F59F70F1F0ED
:101A2000F8019581907FD1F4D12C1EC090E0389FB1
:101A3000F001399FF00D1124E053FE4F61816513D1
:101A400006C06081641303C06281E6120FC0019674
:101A50008770D5CF9F7011F0882331F3805E883076
:101A600018F3C8010E941D0AFD2CB1CFEE2009F425
:101A7000AECF80910502816080930502F12CA7CF43
:101A8000251306C0941304C0F801EE2009F487C0A2
:101A9000C8010E947D0A882319F1EE2009F1809186
:101AA0000502803270F020910002309101023887E7
:101AB0002F831986BB86AA868C87CE0107960E9443
:101AC0001D0A86E0F801A0E0B2E001900D928A952F
:101AD000E1F70E94420C0E94330CFF24F39477CF6D
:101AE000C8010E941D0AF9CF311113C07A2DB98A9D
:101AF000A88A6E2D89890E94900A80E092E00E9457
:101B00001D0A86E0F60111928A95E9F70E94330CCE
:101B1000B5CF25130FC094130DC0E1100BC0F80111
:101B20008583C8010E941D0A86E0F60111928A95FC
:101B3000E9F74DCFC8010E947D0A882389F2EE2083
:101B400079F280910502803208F4BBCF2091000227
:101B5000309101023A8329831B82BD82AC828E833D
:101B6000CE010196ACCFE83CF10508F03EC0FE2C5A
:101B7000EE2009F4B5CF25132AC0941328C0809114
:101B8000050280FD1BC0982F907FC1F0F80185836E
:101B9000903F31F0982F907F905F8F70892B8583D5
:101BA000C8010E941D0A86E0F801A0E0B2E00190A1
:101BB0000D928A95E1F70E94330C09CF86E0F80177
:101BC000A0E0B2E001900D928A95E1F700CFC80144
:101BD0000E947D0A811175CF8091050281608093FA
:101BE0000502C8010E941D0AF2CE7A2DB98AA88A80
:101BF0006E2D89890E94900A86E0F60111928A95DD
:101C0000E9F7D9CFEE2009F46BCFC8010E947D0A15
:101C1000F82E882309F464CF86E0F801A0E0B2E052
:101C200001900D928A95E1F780E092E00E94E5062E
:101C30000E94420CC0CF81E08E25D7CEACE0B0E050
:101C4000E4E2FEE00C9450224F83588769877A873C
:101C50008B879C87CE0107960E94970C882369F09A
:101C60008A859B85892B39F04F815885842F852360
:101C70008F3F09F06BC016E05FC086E0FE0137962B
:101C8000DE01119601900D928A95E1F78A859B8578
:101C9000892B89F388859F8189238F3F61F3209168
:101CA000CF0130E0C9010196877099274091CE019C
:101CB0004817190671F40E945D0A1092CF01109224
:101CC000CE0186E0E0E0F2E0DF011D928A95E9F7BF
:101CD000D2CF96E0929FD001939FB00D1124A053D4
:101CE000BE4FFE01319601900D929A95E1F78093D7
:101CF000CF010E94120CBFCF819FC00111248053DD
:101D00009E4F0E94970C8823E9F0E091CE011E9F20
:101D1000F0011124E053FE4F4081518162817381B3
:101D2000848195810E949A0A8091CE0190E001966B
:101D3000877099278093CE018091CE019091CF0139
:101D40008913DACF2C96E3E00C946C2269857A85AE
:101D50008B859C850E949A0A8ECF682F80910801FE
:101D6000909109010E941A1A0895682F8091080124
:101D7000909109010E94281A08958091080190917C
:101D800009010E94361A089580912602859585954D
:101D90008595089580912602877008959091260276
:101DA000977081E009F480E00895809149020895D8
:101DB00090914902892B80934902089580959091D2
:101DC0004902982390934902089510924902089578
:101DD00090914802892B80934802089580959091B4
:101DE000480298239093480208951092480208955B
:101DF00080912702089508950E94FB0E0895909106
:101E0000AA0292FF08C090912702981721F08093B0
:101E100027020E94FC0E089580912702882329F052
:101E20001092270280E00E94FC0E0895CF93DF936A
:101E3000E0910801F0910901809149028083E091CD
:101E40000801F0910901808190914802892B8083DB
:101E500090912702992381F0E0910801F091090106
:101E60008081892B808380910801909109010E94D3
:101E7000861981110E940C0FC0910801D0910901AF
:101E800040E250E066E072E0CE010E94A323892B7D
:101E900059F080E2FE01A6E0B2E001900D928A9531
:101EA000E1F7CE010E941719DF91CF9108950895AF
:101EB0000E94570F08959091AA0292FF11C098E0D6
:101EC000899F90011124622B609326020E94EC0AE4
:101ED000809126028595859585950E94580F0895D5
:101EE0000E94EC0A08951092260280E00E94580F8A
:101EF0000895909126028095892380932602282FA9
:101F0000277091F4282F082E000C330B921713061C
:101F100059F09091AA0292FF07C085958595859505
:101F20000E94FC0A0E94730F08959091AA0292FBEE
:101F3000222720F9281769F080FB92F99093AA02D2
:101F40008091A9029091AA020E94DD0F82E00E9476
:101F5000790F08958091AA0282FB882780F991E089
:101F600089270E94950F089581E00E94950F08959A
:101F700080E00E94950F08956FEF7FEF90E080E082
:101F80000E94E223089590E080E00E94BE2321E0B9
:101F9000873E9E4F09F020E0822F089582E090E076
:101FA0000E94B023089583E090E00E94B02308953A
:101FB00084E090E00E94BE230895BC0184E090E09C
:101FC0000E94E22308958FE090E00E94B8230895D4
:101FD000AB01BC018FE090E00E94D6230895AB01D5
:101FE000BC0183E190E00E94D623089560E070E098
:101FF000CB010E94EF0F089567EE7EEF90E080E046
:102000000E94E22360E082E090E00E94C42360E04E
:1020100083E090E00E94C4231092CD011092CC0185
:1020200060E074E184E090E00E94E22360E086E0FA
:1020300090E00E94C4236FEF87E090E00E94C423E9
:1020400040E050E0BA0188E090E00E94D62360E0D2
:102050008DE090E00E94C42340E050E0BA0188E1A6
:1020600090E00E94D62360E087E190E00E94C423C4
:1020700040E050E0BA018CE190E00E94D62370E08D
:1020800060E080E290E00E94E22340E050E0BA018C
:1020900088E190E00E94D6230E94650508950E9481
:1020A000FC0F0895682F8EE090E00E94C4230895ED
:1020B0000E94021B60935E0270935F028093600235
:1020C0009093610260935A0270935B0280935C026A
:1020D00090935D020895089508950E946C100895EC
:1020E00008950E94701008958AEF92E10E940019ED
:1020F0000E946B100E946D10089581E008950E9467
:102100007D100895089508950E9482100E94831002
:1021100008950E94FD120E94840608950E94ED1AFF
:102120000E9424130E9489100E9471100895AAE051
:10213000B0E0EDE9F0E10C9449220E9436138CE402
:10214000A82E82E0B82E750110E0F70101917F0101
:10215000812F0E941D131F5F1E3009F440C0081715
:10216000A1F38091620281FD0E9423130E947F10DF
:10217000C82E10E0812F0E941D13082FF5018191B8
:102180005F01081731F1F12CEE24E394D02ED8260C
:102190008D2D8E21B1F0CC20A1F0FE821F8391E025
:1021A000802F8E2109F490E098870E94F61A8160B2
:1021B000782F9A8789874E815F8168858A850E94FA
:1021C000B006F394EE0CF6E0FF12E2CFF501319782
:1021D00000831F5F1E3071F60E94581020C0081344
:1021E000C0CF0E94F61A8C0180914A0290914B0256
:1021F00008171907A1F08FEF89838A831B820E9439
:10220000F61A8160782F9D838C8349815A816B8176
:102210008D810E94B00610934B0200934A020E94E7
:102220008F150E9497062A96EAE00C946522CF93B8
:10223000DF930E941512EC01811520E59207D0F57D
:10224000811530E4930708F086C0803E910518F5AB
:102250008D3C910508F07DC0883A910570F4853A6F
:10226000910508F06EC08130910501F10097F1F001
:102270000497E0F4D0E0C0E019C0813C9105D0F7AC
:10228000C85AD0E0CC0FDD1FC15BDE4F0990D8816A
:10229000C02DD4640BC08115904208F0A8C0C115B0
:1022A00081E0D80718F4C83ED10520F7CE01DF91B0
:1022B000CF910895803622E5920710F5803432E5FB
:1022C000930708F052C08032924508F047C0C1150C
:1022D00082E5D80708F47DC02C2F2695269540E28C
:1022E000249F900111248C2F8370C1E0D0E002C0A4
:1022F000CC0FDD1F8A95E2F7C22BD32BDD68D6CF3A
:10230000803A22E5920760F4803832E5930708F4BA
:1023100041C0CF71D0E0DC2FCC27C46FD06AC6CFCC
:10232000803C42E5940708F449C0C03E82E5D807E6
:1023300008F0A0CFDC2FCC27CC27DF71C06FD06A8C
:10234000B5CFC55AD0E0CF57DE4FC881D0E0D064BA
:10235000ADCFD065ABCFDF70D06AA8CFCF71D0E062
:10236000DC2FCC27C16FD06AA1CF282F26952695C8
:10237000277080E2289F900111248C2F8370C1E088
:10238000D0E002C0CC0FDD1F8A95E2F7C22BD32B21
:10239000DC688CCF282F26952695277040E2249F55
:1023A000900111248370C1E0D0E002C0CC0FDD1F8A
:1023B0008A95E2F7C22BD32BDA6878CF8F710E940F
:1023C000B712C82FD0E0DC2FCC27CC27DF71D0622A
:1023D0006DCF8C2F8F710E94B71235E0D695C795BF
:1023E0003A95E1F7CF709C2FEC01D0695FCF8D2F2C
:1023F0008F710E94B71290E0982F882788279F71CD
:102400009C012C2BE901E3CF462F7E3030F466305F
:1024100020F4672F0E949D05089590E080E00895C4
:102420000E9404120E941711089582389105B9F193
:10243000B0F48133910509F47DC048F489329105E7
:1024400009F46DC08A32910509F47BC00895853383
:10245000910509F45FC08933910509F10895833E20
:102460009105D9F138F4803E910529F1823E91051C
:1024700079F10895863E9105D9F1873E910509F4D9
:102480003EC0843E910541F52091AA0221FF24C05F
:102490008091A90284FD19C087EE90E008952091F3
:1024A000A902237009F05AC02091AA0223FF14C088
:1024B00089E290E008952091A90220FD38C0309172
:1024C000AA0230FF09C024FF43C090E080E00895D5
:1024D0002091A90222FDF7CF08952091A90222FDA3
:1024E0003AC03091AA0230FD39C024FFF5CFEDCFBC
:1024F0002091A90223FFF0CF24FDE7CFCDCF20917B
:10250000A90223FD2EC03091AA0231FFEECF84EE46
:1025100090E008952091A90225FFDECFC9CF209138
:10252000A90225FD21C02091AA0223FFD5CF89E36E
:1025300090E0D2CF2091A90226FFCECF8AE290E090
:1025400008952091A90226FFC7CF81E390E0089566
:1025500083EE90E0089582EE90E0089580EE90E0A2
:10256000089586EE90E0089585E390E008959091B7
:10257000A90292FF06C0282F28712830F9F4877F1E
:10258000846093FF06C0282F28712831F1F4877EDC
:1025900084612091AA0220FF06C0382F387138309C
:1025A000D9F4877F816021FF06C0282F2871283148
:1025B000D1F4877E816194FD877E0895282F247150
:1025C0002430F9F68B7F8860DCCF282F24712431EA
:1025D00001F78B7E8861DDCF382F3171313019F7EB
:1025E0008E7F8860E0CF282F2171213121F78E7EE8
:1025F0008861E1CF80E0089508950E94C30F8111A2
:1026000002C00E944F100E94CE0F809362020E946F
:10261000D80F9093AA028093A9020E94FC120E94F4
:10262000D30F90E00E94B00A8091CA019091CB0133
:102630000E94D10A089508950895E82FF0E0E75424
:10264000FD4F8081089508950E94E403EBEAF2E0D3
:10265000A9EBB2E011921D9282E0E93BF807D1F7B5
:102660008EE00E9449130E94EF050895CF938BEAF4
:1026700092E00E94F003282F4EE069EB72E08BEAB3
:1026800092E00E945C13C82F0E94F2058C2FCF911C
:102690000895CF93C82F90E00E947822809367021C
:1026A00090936802282FFC018E2F821B8C1710F04C
:1026B000CF9108951192F8CFB0E0A0E0E2E6F3E107
:1026C0000C944C22082FF92EE62ED72E142FC22F51
:1026D00010926302D0916402DD2309F452C00E947B
:1026E000F61A2091650230916602AC01421B530B31
:1026F0009A0190936602809365024F3F510509F05D
:10270000C8F4452B99F0109264021092690240912E
:102710006702E42FF091680290E030E08E2F841B76
:10272000811758F03093640290936902C11137C049
:10273000CD2F29C02FEF30E0E6CF8081882321F014
:10274000281720F010829D2F3196E8CF821B8083BE
:102750003D2FFACF8C913881381779F030813111C3
:102760000CC0508388832C918227292F30E0282B9E
:1027700091E0232B09F490E021E031962196119607
:102780001CC0211106C0809169028823F1F0C1119B
:1027900006C00E94F61A90936602809365024091EB
:1027A00067029091630220916402CE2DDD2DA02F4F
:1027B000BF2DE42FF09168025EE18E2F841B8117FC
:1027C00048F2909363022093640280916302CDB734
:1027D000DEB7E7E00C9468220E94EF1C0E948E1086
:1027E0000E94FC1C08950E94011D0E9497100E94E7
:1027F0001B1D08950E948F1A0E94D51C0E94741000
:102800000E94EC130E94F3130E948410FBCF80916E
:10281000710280FF0DC060910F0170E0660F771F9D
:102820006038710570F56115710569F1862F08959D
:1028300081FF07C060910F0184E0689FB0011124FF
:10284000EFCF60910F0182FD0AC080917002882352
:10285000A9F020910E0160910F01821710F088E01D
:10286000ECCF869FC001112433E0880F991F3A9561
:10287000E1F7622F70E00E942722D2CF68E070E07B
:10288000D5CF8FE7089581E008958091710280FF90
:102890000CC060910B0170E0759567957595679513
:1028A0006115710549F1862F089581FF06C0609179
:1028B0000B0170E075956795F3CF60910B0182FD78
:1028C0000BC090916F029923A1F060910A01809151
:1028D0000B01961738F0682F70E06038710500F32F
:1028E0008FE70895899FC001112470E00E9427227C
:1028F000F4CF61E070E0D7CF81E008958D3C31F4F2
:102900000E94071481958093740208958E3C19F4F7
:102910000E940714F8CF8F3C31F40E940714819570
:10292000809373020895803D19F40E940714F8CF34
:10293000893D29F40E9445148093750208958A3DCB
:1029400021F40E9445148195F7CF8B3D31F40E940C
:10295000451481958093760208958C3D19F40E9468
:102960004514F8CF9FE2980F983070F4815D990B71
:1029700021E030E001C0220F8A95EAF780917202CF
:10298000822B8093720208958D3D31F48091710203
:1029900081608093710208958E3D21F480917102CF
:1029A0008260F7CF8F3DB9F7809171028460F1CFDB
:1029B000409173028D3C59F48091740287FF0DC0E1
:1029C0001092740241110BC01092700208C08E3C2C
:1029D00081F48091740218169CF3442381F0809155
:1029E000750290917602892B09F05AC010926F02FD
:1029F00008958F3C49F447FFF0CF10927302809105
:102A000074028111ECCFE0CF803D19F41416ACF3C1
:102A1000E4CF90917502893D29F41916F4F61092CD
:102A20007502DBCF8A3D19F497FFD7CFF8CF90918D
:102A300076028B3D29F497FFD0CF10927602CDCF4E
:102A40008C3D19F41916CCF3C8CF9FE2980F98303B
:102A500090F4815D990B21E030E0B90102C0660F6E
:102A6000771F8A95E2F7CB018095909172028923B6
:102A700080937202B2CF8D3D31F4809171028E7FCE
:102A800080937102AACF8E3D21F4809171028D7FD7
:102A9000F7CF8F3D09F0A1CF809171028B7FF0CFEE
:102AA00008950E94F61A9C0190917302809174021D
:102AB000982B21F030936E0220936D029091750255
:102AC00080917602982B21F030936C0220936B0258
:102AD00082E792E00E943119089585E0E2E7F2E092
:102AE000DF011D928A95E9F71092700210926F0231
:102AF000109271020895FC01818181110EC08281C2
:102B000081110BC08381811108C091E08481811102
:102B100001C090E0892F8170089581E0FCCFA5E08D
:102B2000B0E0E5E9F5E10C94502285E0E2E7F2E05F
:102B3000DE01119601900D928A95E1F710927302D1
:102B40001092740210927502109276028A819B8113
:102B5000892B89F080916D0290916E020E940E1B6C
:102B6000AC01909170029923C9F1809110018417F2
:102B7000150608F440C08C819D81892B91F08091CD
:102B80006B0290916C020E940E1BAC0190916F023F
:102B9000992309F471C080910C018417150608F47B
:102BA00079C0BE016F5F7F4F82E792E00E94481AB2
:102BB000811105C082E792E00E947B1581110E947D
:102BC000511585E0FE013196A2E7B2E001900D9229
:102BD0008A95E1F72596E3E00C946C2220916A0235
:102BE0008AE0289F900111242417350720F69F5F63
:102BF0009093700202C09F3FD1F71A81112359F0C0
:102C00000E9407149FEF11160CF491E0899F802D0C
:102C10001124809373021B81112359F00E94071421
:102C20009FEF11160CF491E0899F802D1124809361
:102C3000740230917302332309F49DCF2091740202
:102C4000222309F498CF45EB3403C00111249923C2
:102C500059F09093730245EB240390011124332320
:102C600039F03093740287CF81E080937302F3CF01
:102C700081E0809374027FCF20910D018AE0289F2C
:102C8000900111242417350708F08BCF9F5F909394
:102C90006F0202C09F3FD1F71C81112359F00E949F
:102CA00045149FEF11160CF491E0899F802D11249B
:102CB000809375021D81112359F00E9445149FEFE6
:102CC00011160CF491E0899F802D112480937602D7
:102CD00030917502332309F464CF209176022223C8
:102CE00009F45FCF45EB3403C0011124992359F057
:102CF0009093750245EB240390011124332339F09E
:102D0000309376024ECF81E080937502F3CF81E05D
:102D10008093760246CFCF93DF93EC01FB01828153
:102D2000882309F4D2C09E0130572332310508F0C0
:102D3000B2C00E94D80F9093AA028093A902FE010C
:102D4000E150F047E232F10520F4EA5FFB4D0C94CC
:102D50003B228091A90281608093A90293C0809157
:102D6000AA0288608093AA028DC08091A902826025
:102D7000F3CF8091A9028460EFCF8091A90288608F
:102D8000EBCF8091AA028160EDCF8091AA02826090
:102D9000E9CF8091A9028061DFCF8091A902806292
:102DA000DBCF8091A9028064D7CF0E945D0A809119
:102DB000A9028068D1CF8091A9028C60CDCF80918B
:102DC000AA028360CFCF8091A9028E7FC5CF809168
:102DD000AA02877FC7CF8091A9028D7FBDCF809146
:102DE000A9028B7FB9CF8091A902877FB5CF80914F
:102DF000AA028E7FB7CF8091AA028D7FB3CF809138
:102E0000A9028F7EA9CF8091A9028F7DA5CF809145
:102E1000A9028F7BA1CF0E945D0A8091A9028F77C2
:102E20009BCF8091A902837F97CF8091AA028C7F4C
:102E300099CF8091A90282FB992790F921E09227EE
:102E400090FB82F990FB83F987CF8091AA02982F9B
:102E5000909591708E7F892B90FB81F983CF909113
:102E6000A902892F8F7B96FF806476CF0E945D0A2E
:102E70009091A902892F97FB87F980586DCF81E047
:102E80000E9452108091A9029091AA020E94DD0F27
:102E90000E945D0A80E0DF91CF91089580E0F0CF3D
:102EA0009091A902892F8F7E94FF806155CF9091D8
:102EB000A902892F8E7F90FF81604ECF9091AA0248
:102EC000892F877F93FF88604DCF81E0E4CFCF9338
:102ED000DF93EB0186319C4711F50E94D50E9A8154
:102EE000992399F08A7A91E009F490E0909377021F
:102EF000811109C089E20E94AD0E0E94160F80E088
:102F0000DF91CF91089585E3F6CF8091770281110B
:102F100004C089E20E94B50EF0CF85E3FBCF81E0CB
:102F2000EFCF0F931F93CF93DF93C42FD22FFC01CA
:102F300082818823C9F040937A020E94F61A909306
:102F400079028093780280E28C0F883040F4C77059
:102F500081E001C0880FCA95EAF70E940208DF915C
:102F6000CF911F910F91089510917A02141332C0DE
:102F700080917802909179020E940E1B883C910505
:102F800048F5C0E2CD0F1D17B9F080E2810F8830FF
:102F900040F4177081E001C0880F1A95EAF70E948B
:102FA0000908C83048F481E09D2F977001C0880F50
:102FB0009A95EAF70E940208802F0E94F907C8300C
:102FC00070F6D77081E001C0880FDA95EAF70E94A9
:102FD0000908C5CF80E28C0F883008F6C77081E001
:102FE00001C0880FCA95EAF7F2CF0F93DB01885131
:102FF0009C4787309105A0F5FC01E85DFB4D0C94E2
:103000003B2206E221EE41EE6AE17CE7CD010E941F
:10301000911780E00F91089507E225EE45EE6BE1F0
:103020007CE7F4CF06E221EE40EE68E17CE7EECFEC
:1030300007E225EE44EE69E17CE7E8CF06E221EE07
:1030400042EE6CE17CE7E2CF07E225EE46EE6DE171
:103050007CE7DCCF08E221E045EE6EE17CE7D6CFED
:1030600012968C91882319F010927A02D3CF81E0C6
:10307000D1CF1092B9008CE08093B8000895B0E0F1
:10308000A0E0E5E4F8E10C944822B82EEB010E94A0
:10309000F61A6C01EE24E394F12CC431D10560F0F2
:1030A00025E0E22EF12CCF3FDC0731F0CE0164E1C8
:1030B00070E00E9413227B0184EAA82E94E8992EE6
:1030C0001092BC00A092BC000E94F61A8C01809164
:1030D000BC0087FF0DC08091B900887F8830F9F06F
:1030E0008091B900887F8031D1F00FEF1FEF08C0C9
:1030F000C8010E940E1BE816F90648F70EEF1FEFF5
:10310000CF3FDC07E9F2C6010E940E1BC817D907A2
:10311000B8F6C801CDB7DEB7EBE00C946422B092EC
:10312000BB009092BC000E94F61A8C018091BC00FA
:1031300087FF0AC08091B900887F883111F0803400
:10314000A1F610E000E0E5CFC8010E940E1BE816D2
:10315000F90660F7D3CF0F931F93CF93DF93EB0163
:103160008093BB0084E88093BC000E94F61A8C0117
:103170008091BC0087FF11C02091B900287F81E0B9
:1031800090E0283211F490E080E0919581959109CA
:10319000DF91CF911F910F910895CF3FDC0741F34D
:1031A000C8010E940E1BC817D90710F78EEF9FEFBA
:1031B000EFCF0F931F93CF93DF93EC0184E88093BD
:1031C000BC000E94F61A8C018091BC0087FF08C0E9
:1031D0008091BB0090E0DF91CF911F910F910895F6
:1031E000CF3FDC0789F3C8010E940E1BC817D9071F
:1031F00058F78EEF9FEFEFCF84E98093BC000895DE
:103200009093950180939401089590938002809308
:103210007F020895E0917F02F0918002309729F0BB
:103220000190F081E02D0995089580E00895E091E6
:103230007F02F0918002309799F0209119012223AA
:1032400059F02091A90227FF07C0DC012C911196AB
:103250002C93119726E02C930280F381E02D0995A1
:103260000895E0917F02F0918002309721F0048070
:10327000F581E02D09950895A3E0B0E0E2E4F9E1DD
:103280000C94512220917D0230917E02281739073B
:10329000A1F090937E0280937D02E0917F02F091F5
:1032A0008002309751F023E029839B838A83068034
:1032B000F781E02DCE01019609952396E2E00C946A
:1032C0006D22A3E0B0E0E7E6F9E10C9451222091F1
:1032D0007B0230917C0228173907A1F090937C0281
:1032E00080937B02E0917F02F0918002309751F051
:1032F00024E029839B838A830680F781E02DCE0119
:10330000019609952396E2E00C946D22FC01329619
:1033100080911901882321F08091A9029EE187FF05
:1033200096E080E0915008F4089521912223D1F392
:103330008F5FF8CF662301F1209119012223F1F06C
:103340002091A90227FF1AC0462F4695469546951B
:103350004E3190F4677021E030E002C0220F331F3D
:103360006A95E2F7840F911DFC01828190E0282389
:10337000392381E0232B69F480E00895FC01329623
:1033800008962191261721F0E817F907D1F7F4CF15
:1033900081E008959C01FC0132969FEF80E041910D
:1033A000461751F09F3F19F4411101C0982F8F5FCC
:1033B0008630A9F79F3F09F40895290F311D97FD25
:1033C0003A95F90162830895FC013296089621919D
:1033D000261303C0DF0111971C92E817F907B9F70C
:1033E0000895E62FE695E695E695EE3168F4E80F48
:1033F000F92FF11D677021E030E001C0220F6A95BE
:10340000EAF78281822B82830895E62FE695E6957E
:10341000E695EE3170F4E80FF92FF11D677021E0A9
:1034200030E001C0220F6A95EAF7209582812823B7
:103430002283089520911901222339F02091A902B5
:1034400027FF03C00E94F11908950E94CA19089528
:1034500020911901222339F02091A90227FF03C0EE
:103460000E94051A08950E94E4190895FC013296FD
:1034700080911901882351F08091A90287FF06C02D
:103480008EE1DF011D928A95E9F7089586E0F9CF74
:1034900045E050E00E94A32321E0892B09F420E0BD
:1034A000822F089508950E94521A0895811106C02E
:1034B00081E0809381020E94531A089582E0F9CF3F
:1034C00083E0809381020E94531A08950E94561A45
:1034D000089581E0809381020E94531A08950E940A
:1034E000691A0895089508950E94731A0895089519
:1034F0000E94721A0895CF930E9442040E943613CC
:103500000E94771AC0E08C2F0E941D13811105C004
:10351000CF5FCE30C1F7CF91089581E0FCCF85B762
:10352000806885BF85B7806885BF08951F921FB6E4
:103530001F9211248F939F93AF93BF938091820228
:10354000811113C08091C7029091C802A091C90255
:10355000B091CA024196A11DB11D8093C7029093FC
:10356000C802A093C902B093CA02BF91AF919F91C4
:103570008F911F901FBE1F9018958091CF028430AD
:1035800031F10E9464061092820288E190E020E40A
:103590000FB6F894A895809360000FBE209360004A
:1035A00083B7817F846083BF83B7816083BF789452
:1035B000889583B78E7F83BF0FB6F894A8958091C6
:1035C0006000886180936000109260000FBE0895D3
:1035D0000E945D0A0E946906089582E084BD93E01E
:1035E00095BD9AEF97BD80936E0008952FB7F8941C
:1035F0008091C7029091C802A091C902B091CA02FD
:103600002FBF08952FB7F8946091C7027091C80238
:103610008091C9029091CA022FBF08959C014FB7B3
:10362000F8948091C7029091C802A091C902B0910C
:10363000CA024FBF821B930B089578941F921FB646
:103640001F9211248F939F93AF93BF938091C702D2
:103650009091C802A091C902B091CA020196A11D21
:10366000B11D8093C7029093C802A093C902B09382
:10367000CA02BF91AF919F918F911F901FBE1F9063
:103680001895F89481E08093E00080E28093D80060
:10369000E9ECF0E010828FE19EE40197F1F700C0C1
:1036A00000001DBA109268001CBC10BE1FBA109218
:1036B0007A0010926E0010926F00109271001092BA
:1036C00072001082ECEBF0E0108214B817B81AB850
:1036D0001DB810BA108215B818B81BB81EB811BAA8
:1036E0000C94003F089588E19AE00FB6F894A895ED
:1036F000809360000FBE90936000FFCF8091A30283
:1037000008959B01BA019091CF029430E9F48F7033
:103710008093E9009FEF8091E800915085FD06C0FD
:1037200085ED8A95F1F700009111F5CF8091E800C1
:1037300085FF0AC050E040E0C9010E948C1D8091C5
:10374000E8008E778093E800089543E050E0BC01E4
:1037500083E00E94811B089545E050E0BC0182E0B7
:103760000E94811B0895CF93DF93EC018091190192
:10377000811111C048E050E0BE0181E00E94811B30
:1037800080E2FE01A3E8B2E001900D928A95E1F794
:10379000DF91CF9108958091A90287FF05C040E293
:1037A00083E050E0BE01EACF48E081E0FACF8091AB
:1037B000CE02811109C00E941C1F0E94791F8091B6
:1037C000E20084608093E20008951092CE02089592
:1037D0000E94691A08956091CB0281E0611101C0D5
:1037E00080E00E94601A08959091CF0281E09430A9
:1037F00009F080E06091CB020E94661A089542E0D1
:1038000061EC81E00E94981E42E061EC82E00E943F
:10381000981E42E261EC83E00E94981E9091CF02D4
:1038200081E0943009F080E06091CB020E94561A4A
:1038300008958091D102833009F463C030F481305F
:10384000E1F1823009F4A0C008958A3009F48CC0F7
:103850008B3009F471C0893009F052C08091D002D8
:10386000813209F04DC08091D4029091D502009729
:1038700019F0029709F044C08091E800877F809397
:10388000E8008091E80082FF37C09091F3008091BA
:10389000F200029731F48091F100813011F086300E
:1038A00021F48091F1008093A3028091E8008B774E
:1038B0008093E8000E94CC1E23C08091D002813A00
:1038C000F9F48091E800877F8093E8008091D4022A
:1038D0009091D502892B61F460E283E892E070E078
:1038E0000E94DB1D8091E8008B778093E8000895AB
:1038F00060E090E080E0F3CF8091CF028111C1CFF2
:1039000008958091D002813AD9F78091D4029091A4
:10391000D502892BA9F78091E800877F8093E80082
:103920008091E80080FFFCCF809119018093F10025
:103930008091E8008E77BCCF8091D002813201F770
:103940008091D4029091D502892BD1F68091E80024
:10395000877F8093E8000E94CC1E8091D2028093E2
:1039600019010E945D0A08958091D002813241F6CA
:103970008091E800877F8093E8000E94CC1E8091B0
:10398000D3028093A40208958091D002813A09F075
:10399000B7CF8091E800877F8093E8008091E800AE
:1039A00080FFFCCF8091A402C1CF84B7877F84BF02
:1039B0000FB6F894A89580916000886180936000AC
:1039C000109260000FBE80E890E00FB6F8948093EC
:1039D0006100909361000FBE0E946F1A08950E94CB
:1039E0001C1F0E94791FE2EEF0E0808184608083DA
:1039F00078940E94F821089581E191E00E940519D0
:103A000008958091CF02853031F48091CF028530C6
:103A100019F00E94E81A08950E94BD1A8091CD0203
:103A2000882399F30E947B1A882379F30E94761DDC
:103A30000E945D0AEACF08950E941F1D0895292F54
:103A400033272330310521F168F42130310509F4A1
:103A500043C02230310509F444C090E080E030E0FA
:103A600020E026C02132310551F122323105A9F77B
:103A70006330710590F7FB01EE0FFF1FE957FE4F12
:103A8000208131816C577E4FFB01808190E010C016
:103A900099278130910581F0009729F00297E9F686
:103AA000ECE9F4E002C0EEEDF4E0849190E09F01D7
:103AB000FA01318320830895E4EBF4E0F6CF63301C
:103AC000710558F6660F771FFB01E357FE4F208103
:103AD000318189E090E0ECCF82E190E026E335E0AF
:103AE000E7CF84E590E022EE34E0E2CF80E189BDCB
:103AF00082E189BD09B400FEFDCF8091D8008F7DA1
:103B00008093D8008091E00082608093E0008091F3
:103B1000E00081FDFCCF0895AF92BF92CF92DF927B
:103B2000FF920F931F93CF93DF936C01EB018A01F8
:103B30000E94EB1EF82E811123C00115110539F0EA
:103B4000F80180819181C81BD90BC80ED91EB12CF8
:103B5000A12C2097A9F08091E80085FD22C08091DA
:103B6000E8008E778093E80001151105A1F0F801B7
:103B700080819181A80EB91EB182A08285E0F82EC5
:103B80008F2DDF91CF911F910F91FF90DF90CF90FC
:103B9000BF90AF9008950E94EB1E8823D1F2F82EBB
:103BA000EFCFF60181916F018093F1002197FFEF34
:103BB000AF1ABF0ACECFFC018091D6029091D702F6
:103BC00086179707A0F06115710529F49091E80018
:103BD0009E779093E80090E06115710551F4911182
:103BE00008C08091E80082FF34C080E00895BC01E5
:103BF000F2CF8091CF028823C1F18530C1F180914D
:103C0000E80083FD30C08091E80082FDEACF80911A
:103C1000E80080FFE1CF8091F3002091F200382F7F
:103C20006115710519F02830310558F091E0283000
:103C3000310509F090E02091E8002E772093E8000C
:103C4000CBCF81918093F100615071092F5F3F4F7D
:103C5000E7CF8091CF02882341F0853041F08091F9
:103C6000E80083FFBECF81E0089582E0089583E0FD
:103C70000895FC018091D6029091D702861797078C
:103C8000A0F06115710529F48091E8008E7780938A
:103C9000E80090E06115710551F4911108C0809120
:103CA000E80082FF35C080E00895BC01F2CF80912A
:103CB000CF028823C9F18530C9F18091E80083FDE6
:103CC00031C08091E80082FDEACF8091E80080FF5A
:103CD000E1CF8091F3002091F200382F611571053A
:103CE00019F02830310558F091E02830310509F0FD
:103CF00090E08091E8008E778093E800CBCF8491AC
:103D00008093F1003196615071092F5F3F4FE6CFEC
:103D10008091CF02882341F0853041F08091E80006
:103D200083FFBDCF81E0089582E0089583E0089588
:103D3000982F973028F08F708093E90081E00895E4
:103D40009093E900242F762F50E0981731F070916E
:103D5000EC002091ED005091F00021FD02C09F5F2A
:103D6000E8CF3091EB003E7F3093EB003091ED00D7
:103D70003D7F3093ED003091EB0031603093EB00EC
:103D80007093EC002093ED005093F0002091EE0032
:103D900027FDE5CF80E008958091D00287FF13C012
:103DA0008091E80082FF06C08091E8008B778093C5
:103DB000E80004C08091CF028111F2CF0895809174
:103DC000CF028823D9F38091E80080FFF8CF80915B
:103DD000E8008E77ECCF2091E4003091E50095E685
:103DE000A9012091EC00822F817020FF06C08091F4
:103DF000E80080FF06C080E008952091E80022FDE1
:103E00001AC08091CF02882389F0853089F0809193
:103E1000EB0085FD0FC02091E4003091E5004217D2
:103E20005307F9F29150E1F684E0089582E0089595
:103E300083E0089581E008950E948B1F0E94931FE4
:103E4000E0EEF0E0808181608083E8EDF0E0808149
:103E50008F77808319BCA7EDB0E08C918E7F8C9317
:103E600080818F7E80831092CE0208950F931F93DE
:103E7000CF93DF930E948B1F0E94931FC8EDD0E069
:103E800088818F77888388818068888388818F7D07
:103E9000888319BC1092CF021092CB021092CD02EF
:103EA0001092CC0200EE10E0F80180818B7F8083BD
:103EB00088818160888342E060E080E00E94981EF3
:103EC000E1EEF0E080818E7F8083E2EEF0E08081A1
:103ED00081608083808188608083F80180818E7F0B
:103EE0008083888180618883DF91CF911F910F91BA
:103EF0000895E8EDF0E080818F7E8083E7EDF0E0CB
:103F000080818160808384E082BF81E08093CE02E3
:103F10000E94361F0895E8EDF0E080818E7F808357
:103F20001092E20008951092DA001092E1000895D4
:103F30001F920F920FB60F9211242F933F934F931E
:103F40005F936F937F938F939F93AF93BF93EF9301
:103F5000FF938091E10082FF0BC08091E20082FF1D
:103F600007C08091E1008B7F8093E1000E94F721E0
:103F70008091DA0080FF19C08091D80080FF15C0C1
:103F80008091DA008E7F8093DA008091D90080FFE3
:103F900096C080E189BD82E189BD09B400FEFDCFF4
:103FA00081E08093CF020E94D71B8091E10080FFC7
:103FB00019C08091E20080FF15C08091E2008E7FE1
:103FC0008093E2008091E20080618093E200809122
:103FD000D80080628093D80019BC85E08093CF021E
:103FE0000E94EB1B8091E10084FF2BC08091E200D6
:103FF00084FF27C080E189BD82E189BD89B5982F02
:10400000917080FFFBCF8091D8008F7D8093D80086
:104010008091E1008F7E8093E1008091E2008F7EAD
:104020008093E2008091E20081608093E2008091C1
:10403000CB02882309F449C084E08093CF020E9418
:10404000F41B8091E10083FF29C08091E20083FF8F
:1040500025C08091E100877F8093E10082E080931A
:10406000CF021092CB028091E1008E7F8093E1001D
:104070008091E2008E7F8093E2008091E200806177
:104080008093E20042E060E080E00E94981E809110
:10409000F00088608093F0000E94E81BFF91EF9190
:1040A000BF91AF919F918F917F916F915F914F9150
:1040B0003F912F910F900FBE0F901F90189519BC34
:1040C0001092CF020E94E51B70CF8091E30087FD24
:1040D00093E09093CF02B3CF1F920F920FB60F923F
:1040E00011242F933F934F935F936F937F938F93FD
:1040F0009F93AF93BF93CF93DF93EF93FF93D091B1
:10410000E900DF708091EC00C82FC17080FDC0E82D
:104110001092E9008091F000877F8093F0007894FE
:104120000E94B0201092E9008091F0008860809396
:10413000F000CD2BCF70C093E900FF91EF91DF919C
:10414000CF91BF91AF919F918F917F916F915F912F
:104150004F913F912F910F900FBE0F901F90189588
:10416000AAE2B0E0E6EBF0E20C94502280ED92E09F
:104170002091F100FC012193CF01F2E0883D9F07DF
:10418000B9F70E94191C8091E80083FF1EC180913D
:10419000D0029091D1029A3008F017C1E92FF0E0D7
:1041A000E15DFB4D0C943B22803899F0823809F098
:1041B0000CC18091D4028F70873008F006C18093C3
:1041C000E9008091EB0085FB882780F91092E900D7
:1041D00006C08091CC029091CD02911182609091A5
:1041E000E800977F9093E8008093F1001092F1002F
:1041F0008091E8008E77E5C0882309F4D3C082302F
:1042000009F0E3C08091D2028111D6C08091D4021E
:104210008F702FEF280F263008F0D7C08093E90069
:104220002091EB0020FFC8C0933031F48091EB0067
:1042300080628093EB00C0C09091EB0090619093FE
:10424000EB0021E030E001C0220F8A95EAF72093CD
:10425000EA001092EA008091EB008860EACF8111B9
:10426000B4C01091D2021F778091E3008078812B37
:104270008093E3008091E800877F8093E8000E94AC
:10428000CC1E8091E80080FFFCCF8091E300806825
:104290008093E30082E0111183E08093CF0295C008
:1042A0008058823008F091C08091D2029091D30260
:1042B0008C3D23E09207A1F583E08A838AE289831B
:1042C0004FB7F894DE01139620E03EE051E2E32F71
:1042D000F0E050935700E49120FF03C0E295EF70A7
:1042E0003F5FEF708E2F90E0EA30C0F0C7968D935D
:1042F0009D932F5F243159F74FBF8091E800877F4E
:104300008093E8006AE270E0CE0101960E94DB1D16
:104310008091E8008B778093E80057C0C096E7CF84
:104320006091D4027091D502AE014F5F5F4F0E9441
:104330001C1DBC01892B09F448C09091E800977FAF
:104340009093E80089819A810E94391EE1CF8038DC
:10435000E1F58091E800877F8093E8008091CB02AF
:104360008093F10045CF811130C09091D2029230FC
:1043700060F58091E800877F8093E8009093CB02FE
:104380000E94CC1E8091CB02882311F084E005C0EE
:104390008091E30087FDFACF81E08093CF020E94F5
:1043A000FF1B13C08091D202813079F481E09330F9
:1043B00009F080E08093CD021092E9008091E8003E
:1043C000877F8093E8000E94CC1E8091E80083FFE5
:1043D0000AC08091E800877F8093E8008091EB001D
:1043E00080628093EB00AA96E3E00C946C2208951F
:1043F000CF938091CF028823A1F0C091E900CF70C4
:104400009091EC00892F817090FD80E8C82B10926C
:10441000E9008091E80083FD0E94B020CF70C09336
:10442000E900CF910895AA1BBB1B51E107C0AA1F49
:10443000BB1FA617B70710F0A61BB70B881F991F45
:104440005A95A9F780959095BC01CD01089597FBE9
:10445000072E16F4009407D077FD09D00E9413228E
:1044600007FC05D03EF4909581959F4F0895709577
:1044700061957F4F0895EE0FFF1F0590F491E02D99
:1044800009942F923F924F925F926F927F928F92F8
:104490009F92AF92BF92CF92DF92EF92FF920F93D3
:1044A0001F93CF93DF93CDB7DEB7CA1BDB0B0FB6DD
:1044B000F894DEBF0FBECDBF09942A88398848889A
:1044C0005F846E847D848C849B84AA84B984C88430
:1044D000DF80EE80FD800C811B81AA81B981CE0F27
:1044E000D11D0FB6F894DEBF0FBECDBFED0108950C
:1044F0000F931F93CF93DF938230910510F482E0E6
:1045000090E0E091DA02F091DB0230E020E0B0E0F0
:10451000A0E0309799F42115310509F447C0281B14
:10452000390B24303105C0F58A819B8161157105F5
:1045300071F1FB0193838283FE0111C0408151819F
:104540000281138148175907F8F04817590799F461
:10455000109761F012960C93129713961C93329653
:10456000CF01DF91CF911F910F9108950093DA024F
:104570001093DB02F4CF2115310519F042175307D0
:1045800018F49A01BD01EF01DF01F801C2CF909349
:10459000DB028093DA02D0CFFE01E20FF31F81939A
:1045A00091932250310939832883DACF2091D802A0
:1045B0003091D902232B41F4209102013091030163
:1045C0003093D9022093D80220910001309101014B
:1045D0002115310541F42DB73EB7409104015091AA
:1045E0000501241B350B4091D8025091D902421786
:1045F000530708F0B5CF241B350B2817390708F4EB
:10460000AFCFBC016E5F7F4F2617370708F4A8CFE6
:10461000640F751F7093D9026093D802FA018193D9
:1046200091939ECFCF93DF930097E9F0FC013297EF
:1046300013821282C091DA02D091DB02DE0130E0F7
:1046400020E02097A1F420813181820F931F2091D7
:10465000D8023091D9022817390709F067C0F093C2
:10466000D902E093D802DF91CF910895DA01AE1715
:10467000BF0708F040C012964D915C9113979D01C1
:104680004115510599F7D9011396FC93EE931297B2
:104690004D915D91A40FB51FEA17FB0779F4808156
:1046A00091810296840F951FD90111969C938E9348
:1046B0008281938113969C938E931297B0E0A0E031
:1046C0008A819B810097B9F5FE0181919191E80F54
:1046D000F91F8091D8029091D9028E179F0719F681
:1046E000109761F51092DB021092DA02D093D90292
:1046F000C093D802B8CFB383A28340815181840F85
:10470000951FA817B90771F44E5F5F4F8D919C916B
:104710001197480F591F5183408312968D919C9198
:10472000938382832115310509F0ADCFF093DB022D
:10473000E093DA0298CFDE01EC01C2CF13961C920F
:104740001E921297D3CFFB01DC0104C08D91019022
:10475000801921F441505040C8F7881B990B0895E7
:10476000F999FECF92BD81BDF89A992780B5089539
:10477000A6E1B0E044E050E00C94EA23A8E1B0E008
:1047800042E050E00C94EA23262FF999FECF92BD27
:1047900081BDF89A019700B4021639F01FBA20BD06
:1047A0000FB6F894FA9AF99A0FBE08950396272F38
:1047B0000E94C5230E94C423252F0E94C523242FB5
:1047C0000C94C5230196272F0E94C5230C94C42363
:1047D000DC01CB01FC01F999FECF06C0F2BDE1BDC1
:1047E000F89A319600B40D9241505040B8F70895B0
:1047F000F894FFCF49084908990899080509210943
:104800007808780826099709A609A609E316571714
:10481000EB16B516B916EF16BD16F316FF16C91628
:104820005017CD160317D11607172F17D5160B17CC
:104830003617DB1611171917C116F716C516FB1612
:10484000DF16151725173F174E17AF16E7165E1719
:104850001218181801180C181E1824182A18D42019
:10486000FC20E521FC20E5212F215021E521A72175
:02487000B32172
:104872000000DC022000200028023C0714283C072C
:10488200147E1BB31BAC1BA51B01E200E900EA006E
:10489200B500B600B700CD008301CC008A019201B9
:1048A20094012102230224022502260227022A025F
:1048B200B300B4006F0070009F01CB01818283E2DC
:1048C20000E900EA00B500B600B700CD008301CCD4
:1048D200008A019201940121022302240225022668
:1048E2000227022A02B300B4006F0070009F01CBBE
:1048F2000181828340476DFC05B5054805F4040D2E
:044902000526050081
:00000001FF
